:020000040000FA
:060000000201070220547A
:03002B000224A309
:030033000224851F
:03004B000224C4C8
:030053000220CABE
:03006B0002245F0D
:10008300021F03E5C754F84401F5C77901220000B4
:100093000080FB120086B900030200F1E4792178A5
:1000A30008B800028004F709D8FCE479297802B87B
:1000B30000028004F709D8FCE490028178F77907FD
:1000C3008002F0A3D8FCD9FA7A777B0990013778BC
:1000D3000279048015E493A3AD82AE838A828B8375
:1000E300F0A3AA82AB838D828E83D8E9D9E7758288
:1000F3003B75839B74031201197582917583007498
:100103000012011975D00075813F751881751902A8
:10011300759F00020096C09FF59FE473D09F22D085
:1001230083D082C09FE493C0E0740193C0E0740263
:1001330093F59F22FF0000B4000028002800283018
:1001430075A000A000A000A00000080008E001F0D6
:10015300001000100010001000100010005000509C
:1001630000500010001000D0070000000000000F36
:100173000001000500307507001000010081FF0039
:10018300000000FF360654063C06FF020202080286
:100193005000A0000000E8030295900100007A904F
:1001A300029190010000CE0902BD90010000B3024C
:1001B300029190010000CF09028390010000C9025F
:1001C300029190010000D009028590010000CB024A
:1001D300029190010000D109028790080000CC022F
:1001E300029190010000D209028990010000D30915
:1001F300FF0100FF200295900100007D9002919085
:10020300010000370A028B900000000000028D906D
:100213000300001903720C720C720C720C720C72D4
:100223000C720C720C720C720C720C720C720C4805
:100233000F600F420FFFFF020202020202020202DC
:10024300010D000000100102959001000080900252
:1002530091900100007A0A02AD900100005D07024F
:1002630091900100007B0A02AB90010000688F02AD
:1002730091900100007C0A02A7900100003F8F02C9
:1002830091900100007D0A02A590010000CB8E022F
:1002930091900100007E0A02A390010000A78E0244
:1002A30091900100007F0A02A190010000958E0247
:1002B3009190010000800A029F90010000B98E0214
:1002C3009190010000810A029D900100004D8F0270
:1002D3009190010000820A029B90010000830A01B1
:1002E300E803053F100AFF00013075030201060011
:1002F30000000000000000000000000000000000FB
:100303000000000000000000000000FFFF06008066
:100313000CE80314094A6565596F44696C6C5065B0
:10032300726970686572616C051207000700020A42
:10033300000201060302F0FF4A6565596F20446914
:100343006C6C205065726970686572616C80130013
:100353000098130A43686172616374657269737408
:100363006963203100024368617261637465726975
:100373007374696320320008436861726163746552
:100383007269737469632033001043686172616337
:10039300746572697374696320340002436861721F
:1003A30061637465726973746963203500029590A3
:1003B3000100007790029190010000960B02B59026
:1003C3000300005909028F90010000970B029190DE
:1003D300010000A80B02B7900100005A09028F9098
:1003E300010000A90B029190010000BA0B02B99021
:1003F3000200005B09028F90010000BB0B02919089
:10040300010000CC0B02BB900000005C09028D9040
:100413000300006C09028F90010000CD0B02919044
:10042300010000DE0B02B1900100007209028F90FF
:10043300010000DF0B120122368A031201224D8ACA
:10044300031201227E8A03120122B98A03120122B6
:10045300E38A031201220D8B03120122248B031260
:1004630001223B8B03120122528B031201227B8B4D
:10047300031201228E8B03120122A48B0312012289
:10048300B78B03120122DE8B0312012201980212A1
:1004930001220599021201223D990212012260995B
:1004A300021201226B99021201228E990212012279
:1004B3009D9A02120122729B02120122ED9B0212EB
:1004C3000122759C02120122B09C02120122E79CB8
:1004D30002120122759D021201224E9E0212012276
:1004E300AE9E02120122B99E02120122389F02120D
:1004F30001223B9F021201223E9F02120122CD9F45
:1005030002120122D09F0212012200A00212012234
:100513002AA00212012218A102120122CAA1021268
:10052300012256E1021201227EE102120122ACE114
:1005330002120122E3E10212012241E2021201222C
:100543008CE202120122D7E20212012217E3021205
:1005530001225DE3021201228BE30212012248E42D
:100563000212012252E4021201225FE4021201226A
:1005730092E4021201225EE5021201226AE50212EE
:10058300012282E5021201228CE5021201228797E1
:1005930003120122959703120122AD970312012240
:1005A300C59703120122E1B0011201228DB101129C
:1005B300012208B20112012229B30112012265B3FB
:1005C300011201220EB401120122F5B4011201221B
:1005D30059B601120122B0B60112012231B701123C
:1005E300012221B8011201226EB801120122F4B8CE
:1005F3000112012226B9011201223ABB0112012282
:100603007CBB011201229ABB011201221DBC011203
:100613000122F1BC01120122B9BD011201229E780F
:10062300001201227179001201221A7A00120122AA
:100633006D7A001201221D7B00120122A97B001298
:100643000122957C00120122C47C00120122D77D75
:10065300001201221F7E00120122F47E00120122E9
:10066300307F001201224C7F001201224D9A0312A7
:1006730001222EF20212012244F2021201226AF234
:100683000212012286F30212012290F302120122C6
:10069300C5F402120122BDF50212012298D2021200
:1006A3000122C8D302120122FBD30212012245D434
:1006B300021201220CD602120122F2A0011201221F
:1006C3005CA101120122BBA201120122CBA20112E1
:1006D3000122F8A2011201224FA301120122F8A361
:1006E30001120122FFA401120122C9A50112012254
:1006F30029A7011201226CA70112012211A80112DC
:1007030001225EA80112012284A80112012292AAE9
:100713000112012297AA011201229CAC01120122AB
:10072300E9AC011201225CAD011201228FAD01126D
:10073300012231AE01120122DAAE0112012212AFFF
:100743000112012215AF011201225DAF0112012234
:100753009DAF01120122F4AF01120122F9820312AB
:1007630001221183031201225983031201226F8391
:1007730003120122B68303120122CA840312012247
:10078300578503120122A28503120122F4240012C9
:1007930001220025001201223B250012012280259F
:1007A30000120122402600120122C6260012012255
:1007B3002B27001201225727001201229027001233
:1007C3000122CE2900120122B22B00120122982D00
:1007D30000120122DB2E0012012229310012012214
:1007E3003B3200120122863300120122963400129A
:1007F3000122B33400120122EE340012012210351B
:1008030000120122733500120122343A0012012230
:10081300C93A001201221A3B00120122413B001285
:100823000122933B00120122B13B001201220B3C37
:1008330000120122F43C001201226A3E001201223E
:10084300EE3E00120122BFD702120122C9D70212C3
:1008530001220CD80212012227D802120122B7D892
:1008630002120122DFD8021201221CD90212012234
:1008730053D9021201227CD902120122F1D90212A8
:10088300012206DA021201221BDA021201224CDAD9
:100893000212012260DA0212012285DA0212012217
:1008A300BFDA02120122EBDA0212012223DB021267
:1008B3000122A2DB02120122CDDB0212012216DC8D
:1008C3000212012240DC021201226BDC021201221D
:1008D3006393031201220080021201222E8002126E
:1008E30001227C81021201225C82021201227B829C
:1008F30002120122F882021201223B830212012218
:10090300918402120122528502120122D987021216
:1009130001227A88021201227089021201226D8A51
:1009230002120122C78B02120122528C02120122EF
:10093300089203120122719203120122C59203123B
:100943000122EC92031201221D930312012213E6EA
:100953000212012280E602120122C7E602120122DC
:10096300DFE702120122DBE802120122BEE90212D2
:10097300012289F701120122CBF7011201229DF80E
:100983000112012276F90112012270FA01120122E9
:1009930052FB01120122BBFB0112012271FC011265
:1009A3000122E5FC0112012251FD011201227AFD0F
:1009B30001120122F4FD011201228DFE0112012216
:1009C300F2FE0112012207FF011201224DFF011263
:1009D300012266FF01120122CBFF01120122CEFF89
:1009E3000112012200800312012228800312012236
:1009F3006680031201222481031201228B810312D8
:100A03000122A78103120122CF8103120122FF8158
:100A1300031201220E82031201228B82031201228E
:100A2300B18203120122C090011201225E920112CF
:100A33000122799401120122B59401120122E29458
:100A430001120122C795011201220E960112012201
:100A5300529601120122649601120122A4960112F8
:100A63000122D196011201221C97011201225C97E7
:100A7300011201228A9701120122DC97011201223D
:100A83006C98011201220A9B01120122209D01127E
:100A930001225E9D01120122EF9E01120122349F69
:100AA30001120122AB9F01120122F59F01120122C3
:100AB30020A001120122C7A00112012205AC0212DB
:100AC300012284AC0212012246B20212012255B362
:100AD30002120122BDB40212012254B502120122F4
:100AE300785300120122C15300120122EE53001267
:100AF30001222154001201222E54001201223A54E1
:100B0300001201224C54001201223355001201221B
:100B1300915500120122C6550012012209570012F5
:100B230001225657001201227A5700120122E75779
:100B330000120122A558001201225E59001201225F
:100B4300CB59001201227D5A001201228D5A001244
:100B53000122145B00120122D35B00120122005C0C
:100B630000120122795C00120122D65C00120122DC
:100B7300205D00120122B65D00120122815E001287
:100B83000122365F00120122AB5F001201220C60CA
:100B930000120122766000120122AF6000120122CE
:100BA300516100120122616200120122A16200124E
:100BB3000122BE6200120122DD62001201222463BF
:100BC30000120122496300120122766300120122FE
:100BD300F0630012012231640012012255650012F4
:100BE30001220566001201225C6600120122C6661C
:100BF30000120122DF66001201223BA2021201222F
:100C03008EA2021201229AA2021201226FA30212E1
:100C1300012296A302120122D1A3021201223DA4B2
:100C23000212012279A402120122B2A402120122A9
:100C3300CAA4021201221FA50212012238A5021220
:100C4300012281A50212012294A502120122AEA55E
:100C530002120122C4A502120122F7A602120122E6
:100C63003EA80212012240A9021201223AAA02124C
:100C73000122F77F0012012252EA0112012282EAC5
:100C8300011201224AEE01120122A1EF01120122F7
:100C93006AF001120122EAF101120122BBF20112F0
:100CA3000122F8F2011201221BF30112012259F36E
:100CB3000112012262F301120122ACF3011201229B
:100CC300B6F30112012260F40112012239F5011277
:100CD30001228DF501120122EFF50112012242F6E4
:100CE3000112012271F601120122AEF60112012254
:100CF300116700120122786A001201227E6A001233
:100D030001220070001201227974001201224F782F
:100D1300001201223DF902120122B3F9021201224B
:100D2300C9F9021201220AFA0212012244FA02123A
:100D33000122BDFA02120122F8FA021201226BFB10
:100D430002120122A9FB02120122B2FB02120122AA
:100D5300BEFB02120122DAFB0212012205FC02127F
:100D630001221BFC021201225FFC0212012293DC0E
:100D730002120122A6DC02120122C0DC02120122AD
:100D8300E9DC021201222CDD021201226BDD0212C8
:100D93000122A9DD021201220EDE0212012223DE4C
:100DA300021201222EDE021201223BDE0212012276
:100DB30052DE0212012260DE021201226BDE0212F7
:100DC300012277DE021201228ADE0212012295DE5F
:100DD30002120122B8DE021201225FDF0212012297
:100DE3006FDF0212012289DF02120122A6DF021243
:100DF3000122C2DF02120122E7DF02120122F2DF27
:100E03000212012207E0021201221BE00212012258
:100E13007CE00212012282E00212012288E0021227
:100E230001228EE002120122A6E002120122D9E081
:100E33000212012243CE01120122C7CE0112012266
:100E430076CF01120122D5D001120122F6D201126E
:100E53000122E2D30112012217D40112012239D453
:100E630001120122E8D401120122E0D6011201226B
:100E730009D7011201229BD701120122CDD70112FA
:100E83000122DAD70112012231D80112012257D8E7
:100E930001120122C4DA01120122C7DB011201226D
:100EA3001FDC01120122D2BF01120122DCC0011298
:100EB3000122C3C101120122CDC101120122EFC1DE
:100EC30001120122FBC10112012294C3011201226A
:100ED300C3C301120122DFC40112012238C501126A
:100EE30001229EC6011201227DC701120122D9C728
:100EF3000112012246C80112012281C801120122F6
:100F0300C0C80112012279CB0112012293CB011235
:100F130001221FCC011201222DCC0112012286CC09
:100F23000112012294CC0112012207CD01120122E8
:100F33006BCD01120122B5CD01120122D38C021215
:100F43000122F58C021201221B8F02120122309220
:100F530002120122489302120122FB930212012280
:100F6300DD9402120122F08B03120122158C03126D
:100F73000122878C03120122CFC502120122D8C598
:100F830002120122E1C502120122B8C60212012295
:100F930069C8021201229FC802120122D9C8021293
:100FA30001220FC90212012249C9021201227DC97D
:100FB30002120122A9C902120122F2C9021201225C
:100FC3002CCA0212012275CA02120122CDCA0212D0
:100FD300012202CB021201225DCB0212012297CB26
:100FE30002120122E8CB021201221ECC02120122BC
:100FF30058CC0212012286CC02120122A9CC021281
:1010030001221499031201224099031201229B9990
:1010130003120122A59903120122B5990312012299
:10102300AEBD02120122B8BD02120122F6BD0212A8
:1010330001223FBE0212012279BE02120122D3BE57
:1010430002120122F4BE0212012296C102120122EF
:101053009FC102120122F0C10212012219C202121F
:10106300012223C2021201228FC20212012223C3D0
:101073000212012277C302120122ADC3021201221E
:1010830034C40212012274C402120122ACC402123B
:101093000122BEC402120122DDC402120122E6C4EF
:1010A30002120122A5C5021201228D96031201220A
:1010B3003788031201226D8803120122A3880312C9
:1010C3000122FC8903120122D19A03120122E79A19
:1010D30003120122F19A03120122A0FF021201223C
:1010E30080EA0212012299EA021201223DEB021266
:1010F30001227DEB0212012296EB02120122CAEBBE
:101103000212012217EC021201224BEC02120122FD
:101113008DEC02120122949003120122BD9003125E
:101123000122E69003120122819103120122C3914D
:10113300031201227C9403120122979403120122C9
:101143001095031201228FFC02120122B4FC021239
:101153000122E0FC02120122D79B03120122553F18
:1011630000120122B941001201226B430012012235
:101173005D4400120122E244001201226045001284
:1011830001228D4500120122B148001201222B4990
:10119300001201221A4A00120122544A00120122AB
:1011A300944A001201224E4C00120122A14C00125B
:1011B3000122EA4C00120122584D001201228A4DED
:1011C30000120122A24D00120122B74E0012012289
:1011D300C74E00120122F74F0012012219500012CC
:1011E30001224F5000120122F45100120122335206
:1011F300001201225353001201225E9803120122AE
:101203006F98031201228E9B03120122CD9B0312BE
:101213000122909C03120122BF9903120122CF994C
:1012230003120122E499031201224A9A03120122B2
:101233008995031201220E9603120122749603125A
:1012430001221C8F03120122458F03120122B08F4A
:10125300031201220190031201225A900312012268
:10126300C7F502120122DCF50212012245F7021230
:101273000122B1F70212012225F8021201223FF8DE
:101283000212012256F80212012269F80212012207
:1012930081F80212012296F802120122B7F8021213
:1012A300012208F902120122A19C03120122958D49
:1012B30003120122EA8D03120122588E0312012226
:1012C300C88E03120122CC8503120122F685031274
:1012D3000122CB8603120122BF87031201227EB5AE
:1012E300021201223BB60212012276B60212012239
:1012F3009EB60212012200B7021201224CB702125B
:101303000122A5B70212012236B80212012238B90E
:1013130002120122F5BA0212012277BB0212012244
:10132300DCBB02120122F3BB0212012203BD021233
:10133300012241BD021201226DDC01120122F7DFFD
:10134300011201227FE101120122D6E101120122E1
:10135300F5E10112012273E20112012211E40112EB
:101363000122F5E401120122DFE801120122AFE9B3
:101373000112012249CD021201227DCF0212012264
:1013830065D002120122E1D10212012206D2021219
:10139300012212D20212012236D20212012291EE4E
:1013A30002120122D6EE02120122F3EE02120122F0
:1013B300B5EF0212012213F002120122DDF0021234
:1013C3000122F5F1021201221E9C03120122C17FA8
:1013D300001201224A9C03120122729C03E06670F0
:1013E3001008A3E066700A08A3E066700408A3E08F
:1013F3006622C3E7960809E7960809E7960809E70E
:101403009622C3E09608A3E09608A3E09608A3E01B
:101413009622C008C3E096F50808A3E096420808A0
:10142300A3E096420808A3E09645087001D3D008CC
:1014330022080808EAC0E0EBC0E086F0E7A4FA1847
:101443000986F0E7A42AFA180986F0E7A42AFA180D
:101453000986F0E7A42AFA1986F0E7A4FBE5F02A47
:10146300FA190886F0E7A42BFBE5F03AFA19088687
:10147300F0E7A42BFBE5F03AFA18180986F0E7A485
:10148300C5F02BFBE43AFA1908E7C5F0C6A426F623
:10149300E5F03BFBE43AFA1886F0E7A4F6E5F0083A
:1014A30026F6E43B08F6E43A08F6D0E0FBD0E0FA8F
:1014B30022E4CFC0E0E4CEC0E0E4CDC0E0E4CCC0A1
:1014C300E075F020E626F608E633F608E633F6087C
:1014D300E633F6181818EC33FCED33FDEE33FEEF6C
:1014E30033FFC3EC9709ED9709EE9709EF971919A5
:1014F30019400FFFEC97FC09ED97FD09EE97FE19D4
:101503001906D5F0BFECF709EDF709EEF709EFF788
:10151300191919D0E0FCD0E0FDD0E0FED0E0FF22A5
:101523006016080808C6C313C618C613C618C61320
:10153300C618C613C6D5E0EA227009080808226057
:1015430016181818C6C333C608C633C608C633C62A
:1015530008C633C6D5E0EA22E627F60809E637F6D9
:101563000809E637F60809E637F622E026F608A367
:10157300E036F608A3E036F608A3E036F622E026C6
:10158300F008A3E036F008A3E036F008A3E036F055
:1015930022C3E697F60809E697F60809E697F608E0
:1015A30009E697F622C3E096F008A3E096F008A3B5
:1015B300E096F008A3E096F022E056F608A3E05682
:1015C300F608A3E056F608A3E056F622E056F00824
:1015D300A3E056F008A3E056F008A3E056F022E09B
:1015E300F608A3E0F608A3E0F608A3E0F622E6F087
:1015F30008A3E6F008A3E6F008A3E6F022E0FAA3C6
:10160300E0FBA3E0FCA3E0FD22EAF0A3EBF0A3ECF4
:10161300F0A3EDF022E0F8A3E0F9A3E0FAA3E0FBE6
:1016230022E8F0A3E9F0A3EAF0A3EBF022CAC0E0BA
:10163300E6F0A308DAFAD0E0FA22CAC0E0E0A3C5D4
:1016430082CCC582C583CDC583F0A3C582CCC582B8
:10165300C583CDC583DAE6D0E0CA22C3E498F8E4B3
:1016630099F912169F8026C3E49AFAE49BFBE920BA
:10167300E7E912169FE498F8E499F922C3E498F88D
:10168300E499F912169FE498F8E499F9C3E49AFAF5
:10169300E49BFB22EB20E7CFE920E7E0B90010BB96
:1016A3000008E88AF084F8AAF022E4FBC8FA22EBE7
:1016B30070227B10C833C8C933C9335007C39AC3D8
:1016C300DBF280069A50012ADBEAC833F4C8C93337
:1016D300F4C9FA2275F008E4C833C8C933C933C959
:1016E3009AC99B5004C92AC93BD5F0ECFBC833F413
:1016F300C8E4C9FA22600D08C6A2E713C618C613C8
:10170300C6D5E0F322600C08C6C313C618C613C6B9
:10171300D5E0F422700422600D18C6C333C608C690
:1017230033C6D5E0F41822251810AF08F518400C7D
:1017330015198008F51840021519D2AF2200C0D040
:10174300251810AF08F518500C05198008F5185026
:10175300020519D2AFD0D0222518F58210AF08F5B3
:1017630018400C15198008F51840021519D2AF85D9
:101773001983222518F582E43519F583222518F8F3
:10178300E43519F9222518FAE43519FB222518FC4A
:10179300E43519FD22E4732518C582C0E0E5193448
:1017A300FFC583C0E0E518C3958224F810AF088510
:1017B30083198582188008858319858218D2AFCE54
:1017C300F0A3E520F0A37808E608F0A3DEFAEFF033
:1017D300A3E58124FAF8E608F0A3E608F0A3E608F7
:1017E300F0A30808E608F0A3E608F0A31581158125
:1017F300D0E0FED0E0F8158115811581E8C0E0EE58
:10180300C0E0222518C582C0E0E51934FFC583C0B6
:10181300E0E518C3958224F910AF08858319858202
:10182300188008858319858218D2AFCEF0A3E520EE
:10183300F0A37808E608F0A3DEFAEFF0A3E581242D
:10184300FBF8E608F0A3E608F0A30808E608F0A30F
:10185300E608F0A315811581D0E0FED0E0F81581EC
:101863001581E8C0E0EEC0E022851983851882E087
:10187300A3FEE0A3F5207808E0A3F608DFFAE0A3CF
:10188300FFE0A3C0E0E0A3C0E0E0A3C0E0E0A3C0AA
:10189300E0E0A3C0E010AF088582188583198008B3
:1018A300858218858319D2AFD083D08202011F8528
:1018B3001983851882E0A3FEE0A3F5207808E0A34E
:1018C300F608DFFAE0A3FFE0A3C0E0E0A3C0E0E096
:1018D300A3C0E0E0A3C0E010AF0885821885831998
:1018E3008008858218858319D2AFD083D08222C025
:1018F300D02518C582C0E0E51934FFC583C0E0E5F3
:1019030018C3958224F310AF088583198582188044
:1019130008858319858218D2AFC8F0A3E9F0A3EA3A
:10192300F0A3EBF0A37908E709F0A3D8FAECF0A34E
:10193300EDF0A3EEF0A3EFF0A3D0E0F0A3D0E0F03E
:10194300A3D0E0F0A3E520F0A3E5F0F0A3228519EE
:1019530083851882E0C0E0A3E0F9A3E0FAA3E0FBEB
:10196300A37808E0F608A3DFFAE0FCA3E0FDA3E018
:10197300FEA3E0FFA3E0C0E0A3E0C0E0A3E0F5D056
:10198300A3E0F520A3E0A3F5F010AF088583198544
:1019930082188008858319858218D2AFD082D083BC
:1019A300D0E0F8D0E032740480067402800274013F
:1019B300C0E0F40412175BD0E012163022740480E6
:1019C3000474028000CCC0E0EDC0E0E518C39CCCF9
:1019D300AD1950011D10AF068C188D1980068C1897
:1019E3008D19D2AF12163DD0E0FDD0E0FC22D0839A
:1019F300D082E9C0E0E493A3C386F0C5F095F0F983
:101A030008E493A386F0C5F095F0700BE493A3C3A9
:101A1300994005E9048002A3E475F002A42582F548
:101A230082E5F03583F583D0E0F9E493A3C0E0E4E5
:101A330093C0E022D083D082ECC0E0EDC0E0E49319
:101A4300A3FCE493A3FDED4C600D121A83EC24FF79
:101A5300FCED34FFFD80EFE493A3FCE493A3FDEDE1
:101A63004C600D121AC2EC24FFFCED34FFFD80EF35
:101A7300D0E0FDD0E0FCE493A3C0E0E493C0E02217
:101A8300C0E0C3E49396087401939618400FE4935F
:101A930066700808740193661870007019A3A3C3D5
:101AA300E49396087401939618A3A3400DD0E0D055
:101AB300E0D0E0021A73A3A3A3A3A3A3D0E022C0A0
:101AC300E0C0F088F0E49366700808740193661828
:101AD3007000A8F0A3A3700BD0F0D0E0D0E0D0E06A
:0A1AE300021A73A3A3D0F0D0E02292
:101AF00074F5121806EAFEEBFFEE2434F8EF34001A
:101B0000F988088909EE2435121C1CF8EE243712D6
:101B10001C1CF50AEC850AF0A4FCAAF0850AF0ED7D
:101B2000A42AFDE82CF8E43DF97A257B0012169FE3
:101B3000EA850882850983F074075AF87401B800B1
:101B4000028004C333D8FCFBEA131313541FF8EECE
:101B500028F8EF3400F9E8245DF582E9121C1F5BD8
:101B60006003EA801CEE2436121C1CF5F0EA84A8FF
:101B7000F0EE28F8EF3400F9E82438F582E9121C79
:101B80001FF97F040218B274F5121806EAFEEBFF83
:101B9000EE2434121C1CC0E0EE2435F582EF340034
:101BA000F583D0E0F08E828F83A3A3A3A3A3E0FAF2
:101BB000A3E0FB8E828F83A3A3A3A3A3A3A3E0FC34
:101BC000A3E0FDECC39AF50AED9BF50BEE247FF53F
:101BD00008EF3400F509850882F583E06401702B75
:101BE000EE2480F582EF3400F5831219C4121C250F
:101BF0007402121740E960137CDC7D04EEFAEFFBFF
:101C0000120B9A850882850983E4F0AC0AAD0BEECD
:101C1000FAEFFB121AF012244B021B82F582EF340A
:101C200000F583E022C082C083851882851983E095
:101C3000F8A3E0F9C3EA9CEB9D5010C3EC98ED9932
:101C4000401BC3EA98EB995014800EC3EA98EB99B5
:101C50004007C3EC98ED994004790180027900D0E7
:101C600083D08222EAC39CFAEB9DFB2274ED12180A
:101C7000069003A2E064086005E06407702C9061A0
:101C8000C8E060269003D0E0F874FF68601CE87537
:101C9000F003A4C8AAF02AF974D228FE740339FF0D
:101CA0008E828F83A3A3A3E070057900021E0CEE41
:101CB0002468F510EF3400F511906060E085108223
:101CC000851183F0750A45750B05750800750900C7
:101CD000E5D914F50EE5D95403F50F601CEE248206
:101CE000F50CEF3400F50D7403650F6058E50E60D8
:101CF00013EE2467121C1C700B793DEEFAEFFB12F9
:101D00000BBE80A6900540E064016026850C8285AC
:101D10000D83E06004780480027800850E08E508F1
:101D2000C398FA95E0FB120A388A088B09EA45093C
:101D30007006120E16021CAA850C82850D83E070B7
:101D4000048A0A8B0B78008016E5D9C0E08812E57A
:101D50000A2512F582E50B3400F583D0E0F008E89F
:101D6000C3950E40E4850C82850D83E0602874FCE9
:101D7000250EF50E780A1219ADAC0EA90FEEFAEF8A
:101D8000FB120C6C7402121740E9700AAA08AB0926
:101D90001212B4021CF97403650F6058850E0C759D
:101DA0000D00780C1219ADAC0AAD0BAA08AB0912E4
:101DB0000C307402121740851082851183E0F8748C
:101DC00080687005750C7F8002880CE50CF50A7838
:101DD0000A1219B1E50FF50A780A1219B1A90EAC69
:101DE00008AD099003D0E0FA7B001208D07402120B
:101DF000174080139003A2E06408600BAC0AAD0B9F
:101E0000EEFAEFFB120D02120E2279017F0C02187E
:101E1000B274F312180674FC12172AEAFEEBFF895B
:101E200008A2AFE433F509C2AFEE2463F50AEF343C
:101E300000F50B8010AA0AAB0B120BE81212B4903B
:101E400004E3E004F0850A82850B83E0F8A3E0F95F
:101E5000E849602FE82402FAE93400FBEA2402F59D
:101E60000CEB3400F50D780C1219AD8A828B83E0EF
:101E7000FCA3E0F9EEFAEFFB120BDC740212174040
:101E8000E960B29004E3E060579004E4E0F8900465
:101E9000E3E0C398500C7402650870449004E5E0D8
:101EA000603E8E828F83A3A3A3A3E0851882851949
:101EB00083121EF07402121776E8121EF09004E2EC
:101EC000E028F07402121776AC82AD838518828503
:101ED0001983AA82AB8379011208DC9004E3E4F051
:101EE000E509A2E092AF74041217407F060218B20F
:101EF000F0A3E4F09004E3E0F82200008521878558
:101F000022C622C0E074EF1218F2A2AFE433FEC280
:101F1000AF759B00906182E0A2E05012E591A2E0D3
:101F2000500C7591FE740165217003121C6CE0A2C7
:101F3000E55051E591A2E5504B7591DF9003A2E089
:101F400064076005E06408702374016521703579C9
:101F5000019003D0E0FA75F003A4CAA8F028FB743E
:101F6000D22AFA74033BFB121E118018E0640D7034
:101F7000139003C4E004F064287002E4F07A00E0F7
:101F8000F9120E28906182E0A2E6400302202AE5C1
:101F900091A2E6400302202A7591BF9003A2E0645B
:101FA000057008120D44120D508003120D4A752160
:101FB00000120DB6E99003A3F07900120DAA120BDE
:101FC000047A017B009003A1E0F91210809078035D
:101FD000E064427055900544E014F0704DC2AF12B9
:101FE0001FE200782AD0E0F618D0E0F6E59F54070B
:101FF00070057509FF800375097FC4C0E07829E684
:10200000F50808E65509F509740B7808121708D089
:10201000E02508F8906270E0A2E740F8E8C333904A
:102020006272F0906270E0D2E0F0906181E0A2E331
:102030005009E5E9A2E3500375E9F7A3E0A2E750F0
:1020400009E591A2E7500375917FEEA2E092AF7F80
:1020500004021951C0E0C0D0C082C083906183E007
:10206000A2E05009E5BFA2E0500375BFFEE0A2E187
:102070005009E5BFA2E1500375BFFDE0A2E250099F
:10208000E5BFA2E2500375BFFBE0A2E35009E5BF44
:10209000A2E3500375BFF7E0A2E45009E5BFA2E454
:1020A000500375BFEFE0A2E55009E5BFA2E550037C
:1020B00075BFDFE0A2E65009E5BFA2E6500375BF99
:1020C000BFD083D082D0D0D0E032C0E074F21218FA
:1020D000F2E5A7A2E4500FE5A1A2E4500953A7EF4F
:1020E00075A1EF12211EE5A7A2E5500CE5A1A2E51E
:1020F000500653A7DF75A1DFE5A7A2E15009E5A1CE
:10210000A2E1500375A1FDE5A7A2E2500CE5A1A252
:10211000E2500653A7FB75A1FB7F0102195174F829
:102120001218067521019003A2E0640670077A0078
:102130007B00120D2CA2AFE433FED2AF9003A8E0D7
:10214000640170187A207B009003A1E0F912110459
:102150007A207B009003A1E0F9121086906182E062
:10216000D2E6F0900541E0602185C62280169003FA
:10217000A7E064017008E5C654F84405F5C653BEEF
:10218000FC121EFC7401652160E4EEA2E092AF7FB8
:10219000010218B28E238F24858228858327851813
:1021A00082851983E0CEA3E0CF852882852783EB43
:1021B000C9EAC8EDCBECCA75F010C3E833C8E933FF
:1021C000C9EA33CAEB33CBC3EA9EF526EB9FF5256C
:1021D000B35004AB25AA26EC33CCED33CDD5F0DAE1
:1021E000AE23AF242274F11218068A088B098C0AD8
:1021F0008D0B90902B78081215BC740F12177678FF
:102200000C1215E290902B780C1215BC7808790C02
:102210001213F590903F50107808790C12159478AD
:10222000081214154014800E780C79081215947851
:102230000C12141550047901800279007F080218ED
:10224000B274ED1218068A088B098C0A8D0B9090D7
:102250002B78081215BC7413121776780C1215E23D
:1022600090902B780C1215BC780C79081213F5405D
:10227000117808790C121594AA08AB09AC0AAD0BB9
:102280008022751000751100751200751301781009
:10229000790C1215947810790812155BAA10AB11FD
:1022A000AC12AD137F0C0218B290902B7808121567
:1022B000E28A828B8378081215CF7F040218B274E9
:1022C000F51218068C828D8378081215E28A828BAB
:1022D0008378081215A8122313C3E098F0A3E0999D
:1022E000122305401E90906F78081215E28A828BA7
:1022F0008378081215818E828F83E02420F0A3E07A
:10230000344EF080A4F08E828F83C3E09420A3E04B
:10231000944E22EA2404F8EB3400F9E8FEE9FF8C3D
:10232000828D83A3A3A3A3E0F8A3E0F98E828F8319
:102330002274F5121806E9FE9004F7E0FAA3E0FB18
:10234000EEC333F8E433F9742028F582748F39F53D
:1023500083E02AF508A3E03BF50978081219AD904F
:10236000906312160012219474021217408A088B8F
:10237000098C0A8D0B74107808121523AA08AB0972
:102380007F040218B274F11218068A0C8B0D8C0EA1
:102390008D0F740F121776E0FAA3E0FB7411121779
:1023A00076E0F508A3E0F50978081219ADEA2401F2
:1023B000F508EB3400F509E4F50AF50B780C79081B
:1023C00012143490903B78081215E2780C790812B8
:1023D0001434AA0CAB0DAC0EAD0F12219474021282
:1023E00017408B09EA450960047A0180027A00EC03
:1023F0002AFCED3400FD7413121776E0F8A3E0F91F
:10240000E8FEE9FFECF8EDF97A717B0212169F887D
:10241000088909E4F50AF50B8E828F837808121576
:10242000F1ECF8EDF97A717B0212169F8A088B099C
:10243000740578081217178E828F83A3A3A3A3E5D0
:1024400008F0A3E509F07F080218B2C082C083E952
:10245000906000F0D083D08222C2AF02000022C080
:10246000E074F21218F2A2AFE433FED2AFE589A213
:10247000E1500312125A758900C2C5EEA2E092AF74
:102480007F01021951C0E074F21218F2A2AFE433D6
:10249000FED2AFE58BA2E0500312125A758B00C238
:1024A000E880D8C0E0C0D0E8C0E0E9C0E0E5A8D24C
:1024B000AFC2C7A2E7A2E792AFD0E0F9D0E0F8D070
:1024C000D0D0E032C0E074F11218F2E5BAF508E5B8
:1024D000BBF50974027808121708AC08AD097A0632
:0A24E0007B0912113A7F0202195124
:1024EC00FFFFFFFFFFFFFFFFC082C083E9900A36AA
:1024FC00F002278374F712179AE99002E1F07C1925
:10250C007D037AFF7BFF12081C9002E274FFF0A39C
:10251C00F0A3E4F0A3F079051207A49002E1E0F92E
:10252C001206C67A3A7B081209EA7F0102186C740B
:10253C00F412179A8A088B09EB548060309002E1F0
:10254C00E0F91210688A0A8B0BAE0AAF0BEE4F60E3
:10255C00138E828F83E064B070031207BCEEFAEF27
:10256C00FB121056AA08E5096480FB80047A007BF4
:10257C000002275274F212179A74FC12172AEAFE00
:10258C00EBFFEE4F60387402121776EEF0A3EF12E9
:10259C0029B7ECF0A3ED1229B7AA82AB831206C0BF
:1025AC00E9F5087073741212177612356BE50A454B
:1025BC000B60658E828F8312262EEE4F7005750888
:1025CC000280557A067B001210BC8A0C8B0DA80C6D
:1025DC00A90DE8497005750813803D88828983E44C
:1025EC00122638A3A3EEF0A3EF123A04E50AF0A3E7
:1025FC00E50BF09002E71226C09002E76017E0FCB2
:10260C00A3E08003EAFCEBFD8C828D831226C07064
:10261C00F38C828D83123490A90874041217400233
:10262C003C06A3A3A3A3E0FEA3E0FF22F0A3F08843
:10263C008289832274F212179A890AE975F017A419
:10264C00FEAFF09002E6E4F09002E41226C0600ABD
:10265C001210C29002E4E4F0A3F0EEFAEFFB1210B9
:10266C00BC8A088B09EA4509602FEEFCEFFD790066
:10267C0012103E9002E4E508F0A3E509F07B00801F
:10268C00081226AAE4F0A3F00BEBC3950A40F2E57E
:10269C000A9002E6F0790080027913023C06EB7591
:1026AC00F017A4F8A9F09002E4E028FAA3E0398A24
:1026BC0082F58322123226EA4B2274F412179A7591
:1026CC000800750900740C1217761239D8FEE9FF50
:1026DC00800CE5082401F508E5093400F509C3E58B
:1026EC00089CE5099D503285080A85090B7403780E
:1026FC000A121717EA250AF8EB350BF98882898339
:10270C00A3A3A3A3A3A312356BEE650A7003EF6515
:10271C000B70BFE8FAE9FB80047A007B0080277419
:10272C00F412179A7900EAA2E0501B7508E47509B7
:10273C008F78081219AD7C047D007A387B0A120759
:10274C009E74021217407F0402186CC082C08390E2
:10275C0002E712278A601C88828983A3A3E06A702F
:10276C0003A3E06B8882898370E8A3A3A3A312322E
:10277C002280047A007B00D083D08202011F123C9D
:10278C00D9E8492274EE12179A74FC12172AEAFE41
:10279C00EBFF851882851983E4F0A3F0EE24021276
:1027AC003474EE24051229A5EE2404F50EEF122D37
:1027BC008AE024FE603924FC604624FE605224FE2C
:1027CC00605E24FE70030228AA24FE7003022922F4
:1027DC0024FE700302293124FE700302294024FCDC
:1027EC00700302294F24FE700302295E02299B907C
:1027FC0003007417F0A3E41229BF12043E02299BB4
:10280C00851882851983AC82AD831207C202296BAD
:10281C00851882851983AC82AD831207C802296B97
:10282C00850C08850D097402121776AC82AD838570
:10283C0008828509831232221206E48A0C8B0DACB5
:10284C000CAD0DEC4D6042E4F50CF50D780C121945
:10285C00AD750C00750D03780C1219AD750C017566
:10286C000D03780C1219AD74081217761219C4796D
:10287C001612321C1208047408121740E9F50C7079
:10288C000B123218120456800F750C0185088285C4
:10289C0009831229AD123490850C0802296E74023A
:1028AC00121776AC82AD83850C82850D8312322291
:1028BC001206E48A108B11AC10AD11EC4D604385FF
:1028CC000C82850D83A3A31219C475100075110316
:1028DC0078101219AD75100175110378101219AD1D
:1028EC0074081217761219C4791612321C120804C5
:1028FC007408121740E9F509700B12321812045CB7
:10290C00800F750901850C82850D831229AD123457
:10291C0090850908804C851882851983AC82AD831B
:10292C001207CE803A851882851983AC82AD83124A
:10293C0007D4802B851882851983AC82AD8312074E
:10294C00DA801C851882851983AC82AD831207E06E
:10295C00800D851882851983AC82AD831207E6E958
:10296C00F508E50860298E828F83A3E06414601F4C
:10297C00850E82850F83E09003001229B7123CD597
:10298C00900301123490E508A31229BF120438EE0B
:10299C00FAEFFB12076202337CF50CEF3400F50DF5
:1029AC0022123CD985188285198322F085188285DC
:1029BC00198322F07C007D03850A82850B831232F9
:1029CC00262274EE12179A74FC12172A8A0A8B0BA1
:1029DC008C0E8D0FEA2405F508EB3400F5097C15F7
:1029EC007D0079007A007B0312103EE5082402F585
:1029FC000CE5091229A88518828519838582108512
:102A0C00831178101219AD850882850983A3A3A3BD
:102A1C00A3122ED21219ADE5082405F510E50934E0
:102A2C0000F51178101219AD850C82850D831232C8
:102A3C002C1206DE74061217408A108B11AE10AFE2
:102A4C0011E50A2402F50AE50B123477EE4F7003F8
:102A5C00022B948017740212177612322288828904
:102A6C0083EAF0A3EBF0900300E004F0900300E0A5
:102A7C00C394054003022B94E4F510F51178101261
:102A8C0019AD7510E975110278101219AD7510EAAF
:102A9C0075110278101219AD74061217761219C43A
:102AAC007910EEFCEFFD12321C1208047408121798
:102ABC0040E9705E850882850983A3A3A3A3A3A321
:102ACC00A3E0F89002E9E0687048122ED21219AD1A
:102ADC007CEA7D02E5082408FAE5093400FB1210B3
:102AEC00387402121740E960298E828F83A3A3A346
:102AFC00A3123222900300E0F51074027810121722
:102B0C001774012510F58274033511F583EAF0A3CF
:102B1C00EBF07402121776858210858311781012EF
:102B2C0019AD74021217761219C4850C82850D83A7
:102B3C00123CEA1206EA74041217408A108B11AE8A
:102B4C0010AF11900300E0F51075110074027810AD
:102B5C0012171774002510F874033511F98882893F
:102B6C0083A31226C07003022A58E82403F8E93420
:102B7C0000F9EE4F6003022A618882898374FFF0AA
:102B8C00A3F0900300E004F0900300E0600A12321E
:102B9C001812044A7900800B850882850983123447
:102BAC0087790A02337C74EA12179A74FE12172A78
:102BBC008C128D13EA2405F50CEB123E54122632BE
:102BCC00750800750900EA2402F510EB3400F511C4
:102BDC0085188285198385820A85830B780A1219D8
:102BEC00AD850C82850D83A3A3A3A3122D9412197A
:102BFC00ADE50C2405F50AE50D123477780A1219A7
:102C0C00AD850C82850D83123CE81206DE7406122B
:102C1C0017408A0A8B0BEA450B7003022D45EA24F8
:102C2C0004F50EEB122D8A1226328A828B83A3A313
:102C3C00A3E0F98510828511831232221206CCE9A9
:102C4C00F5096003022D45E4F514F51578141219F5
:102C5C00AD7514E975150278141219AD7514EA7571
:102C6C00150278141219AD74061217761219C4795C
:102C7C0013AC0AAD0B851082851183123222120817
:102C8C00047408121740E9F5096003022D459002FF
:102C9C00E9E0F8E5087009E02402900301F08017E0
:102CAC00900301E0FCE82402FAE43400FBEA6C70C7
:102CBC0001EB6003022D49850882AA82122EC99469
:102CCC0014122EC15073850E82850F83E0C0E07400
:102CDC00022A122D81D0E0F00508850E82850F8323
:102CEC00A3E0C0E085080A7402250A122D81D0E009
:102CFC00F005089002E9122D941219AD7CEA7D02C0
:102D0C0085080A7402250AFA74033400FB12102693
:102D1C0074021217409002E9E02508F50874FF6E62
:102D2C00700374FF6F6012EE24010EEF3400FFE5A8
:102D3C0008C394145003022BDCE508601312310D08
:102D4C00851082851183123222120450790080146E
:102D5C00E509700375090A851282851383EEF0A3C9
:102D6C00EFF0A90974021217407F0E02186C850847
:102D7C000C7402250CF58274033400F583223400A4
:102D8C00F50F850E82F58322123A172274EE121774
:102D9C009A74FE12172A8C0E8D0FEA2405F50CEB93
:102DAC001229A8750B00900300E4F0F50AEA24023E
:102DBC00F508EB3400F5098049900300E0FA900225
:102DCC00E9E0F8122EC99417122EC1400D900300A1
:102DDC00E0F87416C3989002E9F0122ED21219ADD5
:102DEC007CEA7D0274012AFA74033400FB1210266B
:102DFC0074021217409002E9E0F8900300E028F00A
:102E0C00050AE50C2416F582E50D122D85E0F8E592
:102E1C000AC3984003022EAA900300E0C3941650F4
:102E2C007DE50AC333F8E433F9E50C28FEE50D39EA
:102E3C00FF851882851983AC82AD838E828F8312B5
:102E4C0032221206E48A108B11AC10AD11EC4D70CD
:102E5C0005750B018043E4F510F51178101219ADCE
:102E6C007510E975110278101219AD7510EA75110B
:102E7C000278101219AD74061217761219C479164D
:102E8C0085088285098312322212080474081217ED
:102E9C0040E9F50B7003022DC512348380107C00C1
:102EAC007D03850882850983123222120462A90BE4
:102EBC00740202337EE99400C365D03322EA28F809
:102ECC00E43400F9E822E0F5107511007810227452
:102EDC00EA12179A74FC12172A8A0C8B0D8C128D1D
:102EEC0013EA2405F50AEB1234777508007509000E
:102EFC00E50A2402F510E50B3400F51174021217E3
:102F0C007685820E85830F780E1219AD850A82851F
:102F1C000B83A3A3A3A31239C31219ADE50A24058D
:102F2C00F50EE50B3400F50F780E1219AD851082F5
:102F3C0085118312347D12321C1206DE74061217B0
:102F4C00408A0E8B0FAE0EAF0FE50C2402F50EE58A
:102F5C000D3400F50F80408882898374FFF00508DA
:102F6C00122D7A74FFF005089002E9E0F50C750D4E
:102F7C0000780C1219AD7CEA7D0285080C740225D0
:102F8C000CFA74033400FB121026740212174090D2
:102F9C0002E9E02508F508EE4F60718E828F83A35D
:102FAC00A3A3E0F9850E82850F831232221206CC80
:102FBC00E9F509EE24041229A5E97044E4F514F5A9
:102FCC001578141219AD7514E975150278141219C7
:102FDC00AD7514EA75150278141219AD7408121730
:102FEC00761219C47911EEFCEFFD850E82850F83E4
:102FFC001232221208047408121740E9F5096027EE
:10300C00850C82850D83123103123490E508700310
:10301C000230E912310D850E82850F831232221295
:10302C00046879000230FE850882AA82EA9002E9DF
:10303C007009E02404900301F08022E0F890030171
:10304C00E0F514E82404FCE43400FDEC6514700194
:10305C00ED70C0122EC99412122EC150B6850C827E
:10306C00850D83E0C0E074022A122D81D0E0F005BA
:10307C0008850C82850D83A3E0C0E0122D7AD0E088
:10308C0012311F85820C85830D780C1219AD7404D6
:10309C001217761219C4851082851183123CEA121C
:1030AC0006EA74041217408A0C8B0DAE0CAF0D851A
:1030BC00080C7402250CF874033400F9EE4F7003FD
:1030CC00022F63851882851983E0888289831231E7
:1030DC001FA3E0C0E0122D7AD0E0022F71E5097039
:1030EC000375090A850A82850B8312310312349009
:1030FC00A9097404022D72123CD98512828513839E
:10310C0022900301E0F5F0E50884900300F07C00C8
:10311C007D0322F005088518828519832274EC1230
:10312C00179A74FE12172A8A088B098C0E8D0FEAD7
:10313C002405FEEB3400FF851882851983AC82AD23
:10314C00838E828F831232221206E48A0A8B0BEE54
:10315C0024181229A5EA450B70030231F3123365CA
:10316C0050328518828519831232221207F88A1080
:10317C008B11EA4511606B7912AC0AAD0B85088294
:10318C00850983123222851082851183121798E9E2
:10319C00F50A7058E4F50AF50B780A1219AD8E820F
:1031AC008F83A3A3E0F50A780A1219ADEE2403125B
:1031BC003474780A1219AD8E828F8312322C120855
:1031CC000A7406121740E9F50A7021850C82850DE8
:1031DC0083E0701F85088285098312322212046EE7
:1031EC008011750A0E8009750A018004E50A6003D6
:1031FC00123483850C82850D83E060047900800293
:10320C00A90A74021217407F0C02186C7C007D0313
:10321C00850A82850B8312322622E0FAA3E0FB2278
:10322C00E0FCA3E0FD850882850983123226227416
:10323C00EE12179A74FE12172A8A088B098C0C8DC1
:10324C000DEA2405FEEB3400FF750E00851882850F
:10325C001983AC82AD838E828F831232221206E4E4
:10326C008A0A8B0BEA450B700302335112336550FB
:10327C00358518828519831232221207F88A0E8B33
:10328C000FEA450F605E7912AC0AAD0B850882859A
:10329C000983123222850E82850F83121798E9F565
:1032AC000E600302335485088285098312356BAA9C
:1032BC000AFB1207EC8A108B11A810A911E84970AF
:1032CC001E7AFF7BFF1207EC8A108B11A810A91134
:1032DC00E849606C88828983E50AF0A3E50BF075F8
:1032EC000A008007750E0E805F050A9002E6E0FA70
:1032FC00E50AC39A504AE50A75F017A4FAABF088B0
:10330C00828983A3A3E02AFAA3E03BFB8A828B8306
:10331C0012347DEC4D70D2750A17750B00780A12B9
:10332C0019ADEEFCEFFD1210267402121740EEFCE4
:10333C00EFFD8508828509831232221204748014F1
:10334C00750E098003750E01123CD1850C82850D1A
:10335C0083123490A90E022EBCE5082402F508E570
:10336C00093400F5098A828B83A3A3A3E0A2E5228A
:10337C0074041217407F0A02186C74EC12179A8CA2
:10338C00108D11EA2405F50CEB1229A8750F00EA33
:10339C002402F50AEB123477850A82F58312322265
:1033AC001207EC8A088B09EA450970030234697527
:1033BC000E008071850C82850D83E06401704F8E48
:1033CC00828F83A3A31219C48E828F83A3A3A3A37A
:1033DC00E0F51275130078121219ADEE2405F512F2
:1033EC00EF3400F51378121219AD12321C12080AC0
:1033FC007406121740E9F50F6014850C82850D8355
:10340C00E4F0123CD18510828511831234907C1724
:10341C007D007900EEFAEFFB12103E8E828F83E472
:10342C00F0A3F0050E9002E6E0F8E50EC398501EEE
:10343C00E50E75F017A4F8A9F0850882850983A319
:10344C00A3123E5E12347DEC4D60030233C085083E
:10345C008285098374FFF0A3F0E50F700612321C0D
:10346C0012047AA90F023213F50AEF3400F50B227D
:10347C00A3E0FCA3E0FD228E828F83123CD9850E43
:10348C0082850F83E8F0A3E9F022C082C08390020A
:10349C00E2E06A7003A3E06B70067AE27B028004C0
:1034AC007A007B00022783C082C08378008C828DD7
:1034BC0083E06A7003A3E06B7010E875F003A4F866
:1034CC00A9F0EC28FAED39FB8015088C828D83A3CA
:1034DC00A3A3E06A7003A3E06B60DF7A007B0002B9
:1034EC00278374F612179A1207B68A828B83E582A9
:1034FC00458370067A007B008007A3A3A3A3123236
:10350C0022023B8274F212179AE9FE740E1217769D
:10351C0012356B74101217761239E38C828D83E09E
:10352C0064027036A3123CDFF50CA3E0F9A80C740E
:10353C00026870037429697021750C02750D00788E
:10354C000C1219AD78081219AD780A1219ADEEF9F2
:10355C0012082E740612174080027901023C06E014
:10356C00F50AA3E0F50B2274E812179A74FB1217F4
:10357C002AE9851882851983F08A168B17ECFEEDE3
:10358C00FF751000741D121776123CD5741D12179E
:10359C00761234908E828F83A3A3A3E0A2E4502DE5
:1035AC00741D1217761232221207F88A828B83E569
:1035BC0082458370030239B4790AEEFCEFFDAA163A
:1035CC00AB17121798E9F51060030239B7741F1284
:1035DC0017761239E3742112177612356B74231295
:1035EC001776E0F50EA3E0F50F8E828F83E0640270
:1035FC006003023962A3123CD5850882850983A336
:10360C00858212858313EE24061229A5888289836C
:10361C00E0FAA3E0F9EA2400F514E439F51578147E
:10362C00121A370100002801285736070002281CFF
:10363C0037032889360029533801297E3802291F7F
:10364C0038032953380429FD386239E50E450F60DB
:10365C000302395D850C82850D831239D8FAE9FB9A
:10366C008A828B83E0850A82850B83123A0E1219AB
:10367C00AD8A828B83A3E0FCA3E00238E7E50E451C
:10368C000F600302395D850A82850B837401F01289
:10369C0039EB850882850983F07C007D008E828F52
:1036AC0083A3A3A3A3E02401FAA3E03400FB120636
:1036BC00E4EA4B60418A828B83E02402F8850A821B
:1036CC00850B83E028F0EA2404F8EB3400F98882B7
:1036DC008983E0851282851383123A20123A0E12E6
:1036EC0019AD8A828B8312347CE5082403FAE50930
:1036FC003400FB0238EC850A82850B83E02404F04D
:10370C007C047D007900AA12AB1312103E0239B76B
:10371C00E50E450F600302395D1239EBFEA3E0FFA5
:10372C00850A82850B837404F0EE850882850983F3
:10373C00F0EF851282851383F07403121776AC8236
:10374C00AD83EEFAEFFB1206E48A0C8B0DEA450D05
:10375C0070030238008A828B83A3A312262E740175
:10376C0012177685820E85830F780E1219AD7405AB
:10377C001217761219C47CFF7DFF1206EA7404122C
:10378C0017408B0FEA450F7033850C82850D831221
:10379C0039C31219AD850C82850D83A31219C47C13
:1037AC00027D007A937B901205167404121740E97F
:1037BC00700A740112177674FFF0A3F08E828F8357
:1037CC00E064027039750C02750D00780C1219AD9D
:1037DC008E828F8312347CE5082404FAE5093400C8
:1037EC00FB1210267402121740850A82850B83E0A7
:1037FC00240280097401121776EEF0A3EFF0740125
:10380C001217761239D4F07401121776A31239CC30
:10381C00023957E50E450F600302395D850C828530
:10382C000D8312347DAA16AB17120822850A8285E5
:10383C000B837402F0EA850882850983F085128275
:10384C00851383EB02395AE50E450F600302395D8F
:10385C001239EBF8A3E0F9850A82850B837402F028
:10386C00E8850882850983F0E98512828513830235
:10387C00395A850C82850D83123222121020EAFCF3
:10388C008C82A882C3950EE4950F405FE8650E709C
:10389C0002E50F70047C008022851882851983E074
:1038AC00FAE50E2AFAE50F3400FBC3EA98EB940014
:1038BC005003E08005E50ECCC39CFCEC850A8285A8
:1038CC000B83F08C0A750B00780A1219AD850C82EB
:1038DC00850D83E0250EFCA3E0350FFDAA08AB098E
:1038EC0012102674021217400239B77510070239EC
:1038FC00B7E50E450F705A850C82850D83123CD5A9
:10390C00850A82850B83740712263A1239CC12264B
:10391C003AA3E0851282851383F0E82402FAE93495
:10392C0000FB8A828B831239CC1239FB1239D4A357
:10393C00123A041239DDF0E82405F8E93400F9886C
:10394C008289831239DDA3123A20A3A3A3A3F080AA
:10395C005A75100B8055741D1217761232221207ED
:10396C00B68A828B83E5824583603D123CD5880CF8
:10397C00890DE8450D6031780E1219AD780A1219CF
:10398C00AD78081219AD7406121776E0F9EEFCEF5B
:10399C00FDAA16AB17850C82850D83121798740639
:1039AC00121740E9F510800375100EA9107405125A
:1039BC0017407F1002186CE0F50E750F00780E2280
:1039CC00E085088285098322123A2A22123CD9E822
:1039DC0022123A2AA3A322E0F508A3E0F5092285D6
:1039EC000C82850D83E0F8A3E0F5838882E022A3A6
:1039FC00A3F08A828B83A322F088828983A3A3A35A
:103A0C00A322F08A828B83123A1722E0F50A750BF7
:103A1C0000780A22F088828983A3123A2A22E08550
:103A2C000882850983A3A32274EE12179A74FE12DE
:103A3C00172A8A0A8B0BECFAEDFB7414121776E03A
:103A4C00F510A3E0F5117416121776E0FE74181237
:103A5C001776E0F50EA3E0F50F851882851983AC77
:103A6C0082AD831206E48A0C8B0DEA450D60498504
:103A7C0018828519831232221207B68A828B83E54B
:103A8C00824583602FA3A31239E3E508450960241E
:103A9C00780E1219AD78101219ADEEF9AC0CAD0D03
:103AAC00AA0AAB0B85088285098312179874041235
:103ABC0017408006790E80027901022EBC74F61232
:103ACC00179A74FE12172A740C1217761239D885AD
:103ADC001882851983F07401121776E9F0E4F50861
:103AEC00F50978081219AD75080278081219AD7429
:103AFC000412177685820885830978081219AD128D
:103B0C00080A74061217407402121740806874F782
:103B1C0012179AEAFEEBFF89087C197D0312082222
:103B2C00EA5402600BA908EEFAEFFB1206D88002E9
:103B3C00790102253674F612179A74FF6A700374B1
:103B4C00FF6B70168C828D83123B87E4F08C828D18
:103B5C0083A3A3A3123B87A380181207F28A088BB6
:103B6C0009A808A909E849600D8882898374FF12A5
:103B7C002638A3A3E4F07F0202186C74FFF0A3F0C4
:103B8C008C828D83A3A32274F612179A1207F28AE1
:103B9C00828B83E58245836006A3A3E0FA80027AD8
:103BAC00007B0080D174F212179A8A088B09ECFE04
:103BBC00EDFF740E121776E0F50A1207F28A0C8BE1
:103BCC000DA80CA90DE8497026EEFCEFFD7AFF7BE1
:103BDC00FF1207F28A0C8B0DA80CA90DE849700492
:103BEC007911801688828983E508F0A3E509F088AD
:103BFC00828983A3A3E50AF079007F0602186C740E
:103C0C00EE12179AEAFEEBFF8C088D09890C7414DE
:103C1C00121776123CD57416121776123222750DC5
:103C2C0000E8496003023CC97402650C6003023C65
:103C3C00C47412121776123CDFFCA3E0F9EC2400DA
:103C4C00F50EE439F50FEAF4F8EBF4F9EC58F8E575
:103C5C000F59F9E849705CE5082406F8ED3400F9D1
:103C6C00880A890B8882F583123CEA1208228A1092
:103C7C008B11E50E65107004E50F65116042780E2E
:103C8C001219AD850A82850B83123CEA120828743E
:103C9C0002121740E9F50D7027780E1219AD850840
:103CAC0082850983A3A3123CE81208407402121700
:103CBC0040800D750D808008750D0D8003750D0B02
:103CCC00A90D0233818E828F83123CD922E0F8A396
:103CDC00E0F922123CD988828983E022A3A3E0FC7C
:103CEC00A3E0FDEEFAEFFB2274E812179A74E712C8
:103CFC00172A851882851983EAF0A3EBF08C168DB0
:103D0C0017890E7508007509007431121776E0F5E5
:103D1C0012A3E0F5137433121776E0F514A3E0F553
:103D2C00157435121776E0F50FE50975F003A4F854
:103D3C00A9F0851882851983123E5EE0F47003A306
:103D4C00E0F47003023E41EE2402F50CEF123E54F7
:103D5C00E07003023E4185160A85170B780A12198A
:103D6C00ADAC14AD15AA12AB131207AA740212173C
:103D7C00408A0A8B0BEA450B7003023E41E4F510B6
:103D8C00F51178101219AD7406121776858210850C
:103D9C00831178101219AD7409121776858210856B
:103DAC00831178101219AD851282851383A3A3A3F6
:103DBC00A31219C47914AC0AAD0B8E828F83123204
:103DCC00221208047408121740E97069850A82856A
:103DDC000B83A3A3A3A3123CD5740212177612343F
:103DEC0090850C82850D83E0A2E05018A90E740218
:103DFC00121776AC82AD838E828F8312322212061A
:103E0C00FCE94208850C82850D83E0A2E15026E591
:103E1C000FF50A780A1219B1A90E7403121776ACB1
:103E2C0082AD838E828F831232221206F6740112B7
:103E3C001740E942080509E509C394025003023D05
:103E4C0035A90874190239BB3400F50D850C82F5BF
:103E5C008322E028FEA3E039FF8E828F832274F246
:103E6C0012179AEAFEEBFF890B7401650B600E7456
:103E7C0002650B706A7901120A08E97062EEFAEFBA
:103E8C00FB1207EC8A088B09EA45096047750A00A2
:103E9C00800B7C177D00790012103E050A9002E61B
:103EAC00E0F8E50AC3985021E50A75F017A4F8A9C3
:103EBC00F0850882850983A3A3E028FAA3E039FBE7
:103ECC008A828B8312278A70C9850882850983743C
:103EDC00FFF0A3F07C197D03EEFAEFFB12081C0235
:103EEC003C0674F212179A8A088B09ECFEEDFF74EB
:103EFC000E12177612356B900A36E0F4603D7A0993
:103F0C007B00121050EA4B60328A828B8374B1F0C2
:103F1C00A3E41239FDA31239FBA3E508F0A3E509CC
:103F2C00123F4AEEF0A3EF123F4AA3A3E50AF0A317
:103F3C00E50BF0900A36E0F912105C023C06F08AB0
:103F4C00828B83A3A3A3A3A32274F012179A74FAEF
:103F5C0012172A8908ECFEEDFF7509008A0A8B0BF3
:103F6C00780A1219F10004107D41983FB63FD03FFA
:103F7C00E83F06401E40414059406D409740144177
:103F8C0025413C4157417D417D41AD40740165085F
:103F9C0060030241788E828F83E0F8C39403400360
:103FAC00024178E8900B22024154740265086003C8
:103FBC000241788E828F83124925900B23E8F0A35F
:103FCC00E90241547401650860030241781241A56D
:103FDC004003024178E89007660241547401650879
:103FEC0060030241788E828F83E0F8C3940540030E
:103FFC00024178E890076702415474016508600338
:10400C000241781241A54003024178E8900768020A
:10401C004154741065086003024178750A10750BE1
:10402C0000780A1219AD7A697B07121026740212F5
:10403C00174002419E7401650860030241781241E9
:10404C00A54003024178E890077902415474016558
:10405C000860030241788E828F83E0900B26024128
:10406C00547404650860030241788E828F83780C47
:10407C001215E2909063780C1214155003024178DB
:10408C0090077B780C1215F102419EE96003024106
:10409C0078120684E970051211BE805690080E80C5
:1040AC0063740765086003024178750A06750B0096
:1040BC00780A1219AD8E828F83A3AC82AD83740201
:1040CC0012178812102C74021217407C007D00AA63
:1040DC0018AB198E828F83E0F912116AE9F50AC3C5
:1040EC00940A400302419B120684E9700CA90A123F
:1040FC0011C47950121332806E740F250AF582E4C4
:10410C003408F5837401804074016508705E1241B7
:10411C00A55059E890077A802F74016508704D8E70
:10412C00828F83E0F8C3940A5042E8900B258018E4
:10413C007401650870368E828F83E0F874F928C399
:10414C00940A5028E8900B27F0804774016508709A
:10415C001B90080DE0F88E828F83E090080DF0E83C
:10416C007030E06401702B1211B280267509188032
:10417C0021C3EA9427EB9400501574026508700F64
:10418C008E828F83124C48120522E9F50980037543
:10419C000902A90974060245858E828F83E0F8C353
:1041AC00940222740E1217407F0402186C74F012E1
:1041BC00179A74B112172A8C0E8D0F908FEA7420F7
:1041CC00121790740612163D742012179012116A71
:1041DC00E9F50B745F121776E0F50CE9C3940A400D
:1041EC000302433775F006E9A4F5097441121790E0
:1041FC007A0E74202509F912132CE97009744D12EA
:10420C001776E0FE80027E00900B22E064027005BF
:10421C0075080180037508007408650C700474221D
:10422C00800274212509FF7C1B7D00790074261205
:10423C00178812103EEEA2E0E433F50A742612172A
:10424C00907A1BEFF912132CE97025744012177633
:10425C00E024F9C3940A501878081219B174271283
:10426C001790A90AAA0EAB0F1205C47401121740BD
:10427C007C147D007900740C12178812103E740C9B
:10428C001217907A1074242509F912132CE9703046
:10429C007C1079FF740C1217881210A4E970217429
:1042AC001C121776AC82AD837A0474252509F91299
:1042BC00132C740C121790A90AAA0EAB0F1205AC92
:1042CC00AC18AD197A0C7470250BF912132CE9701B
:1042DC0049AA18AB1912119A7F00EF75F003A4F8D4
:1042EC00A9F0851882851983E58228F8E583124A9E
:1042FC004D124C42601D88828983A3A3E0F508759A
:10430C00090078081219ADAA0EAB0F12081074022E
:10431C001217400FEFC3940440C0EEA2E1500C9072
:10432C000765E0F9AA0EAB0F1208167404650C7041
:10433C0027900B22E06402701F7A00900779E060EE
:10434C00010A900766E06004780480027800E84A6D
:10435C00F9AA0EAB0F12066C7900744F02458574E6
:10436C00F112179A74F012172A8A0C8B0D8C088D87
:10437C00097E0AE9600C14600914603A1460750235
:10438C0044511211ACE9FEC3940A4003024451E5B6
:10439C000845097003024451750A06750B00780A2A
:1043AC001219ADAC0CAD0DAA08AB09121026740293
:1043BC001217400244517F00750A06750B00780AEB
:1043CC001219ADAC0CAD0DEF75F00EA4F8A9F0748C
:1043DC008728FA740739FB1210387402121740E957
:1043EC0070090FEFC3940A505C80CDEFFEC3940AA2
:1043FC00505380427F00AC18AD197A1075F006EF5F
:10440C00A42423F912132CE9701C7C1079FFAA1830
:10441C00AB191210A4E9700EAC0CAD0DAA18AB19A7
:10442C0012058EE960090FEFC3940A501880C7EF8C
:10443C00FEC3940A500FE50845096009AA08AB09A8
:10444C00EEF91211A6EEF974101217407F0702183C
:10445C006C74F412179AE9FF7E1574FF6A7003747A
:10446C00FF6B7028750800EFFC7A027B00A908121C
:10447C001188E960027E000508E508C3940A40E74C
:10448C00EF604E7AD67B11120A1A80451209FC8A0B
:10449C00088B09EA450960387C007D00EA2405FA9E
:1044AC00E43509FB850882850983A3A3A3A3E0F95E
:1044BC0012116AE9C3940A500BEFFC7A027B0012CA
:1044CC0011887E00EF600AAA08AB091211D6800190
:1044DC001EEEF90241B474F212179A8C088D097E03
:1044EC0015740E121776E0F50AA3E0F50B74FF6A4B
:1044FC00700374FF6B701D7F00AC0AAD0BAA08AB88
:10450C0009EFF912118EE960027E000FEFC3940AD5
:10451C00503B80E51209FC8A828B83E582458360DF
:10452C002B7C007D00E5822405FAE43583FBA3A3F4
:10453C00A3A3E0F912116AE9C3940A5010AC0AADB6
:10454C000BAA08AB0912118E7E0080011EEEF97FBA
:10455C000602186CC082C08390077FEAF0A3EBF0D0
:10456C00900765E0FC7D007A267B001205229007FF
:10457C0065E0F912078C0250481217407F080218A8
:10458C006C74F012179A74EC12172AEAFEEBFFEE19
:10459C00240CF50CE43FF50DEE2405F50EE43FF587
:1045AC000FEE2409F50AE43FF50BEE2403F508E4BD
:1045BC003FF5098E828F83A3A3E024FA700302488F
:1045CC004924FD70030247671470030246641460AB
:1045DC001024FD700302473E14700302479E0248EC
:1045EC00A012534A604AE0F5838882E0F50EA3E0FE
:1045FC00F50FE50E450F6038850C82850D83E0F5CF
:10460C000C780C1219B1EE240BF582E43FF583E023
:10461C00F9850A82850B83124C480A0A0AAB098574
:10462C000E82850F8312179874011217400248A04E
:10463C00850A82850B831219C490077B121600120F
:10464C0005BE7402121740E970030248A079018577
:10465C000A82850B830248148E828F83A385820A7B
:10466C0085830BE06003024721850E82850F83E072
:10467C00A2E0400302472190081912534D60030237
:10468C0047217C0E7D007900AA18AB1912103E85CB
:10469C000C82850D83125013EA4B6010750C067555
:1046AC000D00780C1219ADEA2410801B12500D125B
:1046BC0009FCEA4B70030248A0750C06750D0078D6
:1046CC000C1219ADEA2405FCE43BFD7402121788A8
:1046DC001210267402121740850E82850F83E0A2F9
:1046EC00E25004D2F08002C2F0A2F0E433F8740C71
:1046FC00121776E048F0EEFCEFFDAA18AB19121178
:10470C00A0E970117A027B00900765E0F912108025
:10471C0079000248A212534A70030248A01248A71B
:10472C0070030248A0850A82850B83E0FC790102A4
:10473C00483D12534A70030248A0124FD2890BE82D
:10474C00450B70030248A08E828F83A3E0FC790294
:10475C0012500D8882850B830248447C007D00EE4C
:10476C002404FAE43FFB850882850983E0F91211E1
:10477C006AE9F8C3940A40030248A0EE240AFCE458
:10478C003FFD7A0475F006E8A42425F912132602DD
:10479C0048A012500D90077AE06007900B25E0F9C5
:1047AC008069900B22E070047905805F1209FC8A05
:1047BC000C8B0DA80CA90DE82404F50CE439F50DAF
:1047CC008E828F83A3A3A3A3A3A3A3E0A2E0504153
:1047DC00E84970030248A0850C82850D83E0FE60D9
:1047EC0030850A82850B83E054107025740E1217E5
:1047FC0090E82405FAE439FBEEF912116AE970111C
:10480C0079038508828509831250131205B8024872
:10481C00A0AC0EAD0F850C82850D83E0F912500D06
:10482C001211E212534A606C1248A760677C00793F
:10483C000012500D8E828F831217988057120684A7
:10484C00E9705190080EE0640170151211BE9008C9
:10485C000EE4F07C0AFDF97A0F7B0812103E802CD6
:10486C00750A00850A08740F2508FEE43408FF8ECB
:10487C00828F83E06401700BA90A1211C48E828F9F
:10488C0083E4F0050AE50AC3940A40D77950121361
:10489C00321211B279017414024585124FD6E8FE1A
:1048AC00E9FFEE4F2274F412179A74F212172AEAE7
:1048BC00FE8C0975F006E9A42420F508AC18AD1996
:1048CC007A0EF912132CE9704B7C0679FFAA18ABFF
:1048DC00191210A4E9703D740C121776124925E8D0
:1048EC00F50BE5096005EE420B8004EEF4520B85E6
:1048FC000B82AA82E86A7001E96015740C121776B3
:10490C00EAF0A3E4F0AC18AD197A0EA9081213263C
:10491C007901800279000241AFE0F8A3E0F922743A
:10492C00F212179A74E612172A89098A0C8B0DEC6D
:10493C00FEEDFF740C1217907A0E75F006E9A424A4
:10494C0020F912132CE96003024A107C0679FF74DB
:10495C000C1217881210A4E96003024A1074702517
:10496C0009F508AC18AD197A0CF912132CE960038F
:10497C00024A0CAA18AB1912119AE50C450D701DC0
:10498C007C0C7900AA18AB191210A4E970727C0C7B
:10499C007D007900AA18AB1912103E8051AC18ADED
:1049AC0019AA0CAB0D1211948A0A8B0BA80AA90B2D
:1049BC00E8497022EE4F604CAC18AD197A007B00C0
:1049CC00121194EAF8EBF9EA4B603988828983E595
:1049DC000CF0A3E50DF0124A89FAEE6A7001EF6053
:1049EC001FEEF04F700888828983E4F0A3F0AA18B8
:1049FC00AB1912119AAC18AD197A0CA9081213261E
:104A0C00790180027900741A12174002455B74F721
:104A1C0012179A7F00EF75F003A4F8A9F0EC28F8B0
:104A2C00ED124A4DE06A7003A3E06B7006E8FAE9F8
:104A3C00FB800B0FEFC3940440DB7A007B00024D2C
:104A4C008539F9888289832274F712179A7E00EED1
:104A5C0075F003A4F8A9F0EA28F8EB124A4DE0F43B
:104A6C00FCA3E0F4FD88828983ECF0A3EDF0124AFC
:104A7C0089F4F00EEEC3940440D5024D85E824026F
:104A8C00F582E439F583E02274F412179A74F41267
:104A9C00172AEAFEEBFF8C0A8D0B90081912534D66
:104AAC00704FEE4F7003024C23EC450B7003024C1D
:104ABC00231211ACE9900B28F0C3940A403375080B
:104ACC00007C0679FFE50875F00EA4FAABF0748152
:104ADC002AFA74073BFB1210A4E96003024B7C0515
:104AEC0008E508C3940A40D975090AE509900B2812
:104AFC00F0900B28E0C3940A4003024C2375F00697
:104B0C00E0A4F8900819125013EA4B7069EEFCEF10
:104B1C00FD7A0E742028F91213267C0C7D0079FF87
:104B2C00AA18AB1912103EAC18AD197A0C900B28C0
:104B3C00E02470F912132675080E75090078081216
:104B4C0019ADEEFCEFFD900B28E075F00EA4F8A962
:104B5C00F0748128FA740739FB12102674021217AC
:104B6C0040900819E50AF0A3E50BF07900024C25FA
:104B7C00850809024AF7124C2A2406124C3C60198B
:104B8C007A1B742128F9121326124C332406F58251
:104B9C00E438F583E4F0A380D1124C2A240A124C99
:104BAC003C60107A1B742228F9121326124C332401
:104BBC000A80DB124C2A240C124C3C60107A1074C4
:104BCC002328F9121326124C33240C80C1124C2AC0
:104BDC002408124C3C60347A10742428F9121326E1
:104BEC00124C332408F582E438F583E02410FCA33E
:104BFC00E03400FD7A0475F006900B28E0A424251F
:104C0C00F9121326124C332408808390080DE060AF
:104C1C00031211E81211DC7901740C0241B19008F5
:104C2C0019E0F9A3E0C922900819E0F8A3E0C82222
:104C3C00F582E439F583124C48EC4D22E0FCA3E0FC
:104C4C00FD2274F412179A74F212172AEAFEEBFF83
:104C5C00E9C3940A5004EE4F700479028034AC1806
:104C6C00AD197A0E75F006E9A42420F912132CE97B
:104C7C00F508701C750A06750B00780A1219AD74CC
:104C8C0002121790EEFAEFFB121026740212174064
:104C9C00A9080241AF74F412179AEAFEEBFF7508EB
:104CAC0000750A06750B00780A1219ADEEFCEFFDC3
:104CBC00E50875F00EA4F8A9F0748128FA74073988
:104CCC00FB1210387402121740E96004A908800B1B
:104CDC000508E508C3940A40C8790A0241B474F780
:104CEC0012179A750800E50875F00EA4F8A9F0746F
:104CFC008128FE740739FFEEFCEFFD7A0E75F00685
:104D0C00E508A42420F912132CE960297C067D0007
:104D1C0079FFEEFAEFFB12103E7C067D0079FFEE78
:104D2C002CFAE43FFB12103EEE240CF582E43FF526
:104D3C0083E4F0A3F00508E508C3940A40A89008A2
:104D4C000DE060031211E81211DC802D74F71217BC
:104D5C009A7E007F007C0679FFEF75F00EA4FAAB0B
:104D6C00F074812AFA74073BFB1210A4E970010E4F
:104D7C000FEFC3940A40DEEEF97F0102186C74F752
:104D8C0012179A7E00EEF91211C40EEEC3940A505B
:104D9C0003E960F180E374F312179A74CB12172AAB
:104DAC00E9FF900B28E06F701B7A017B0090076580
:104DBC00E0F91210867A027B00900765E0F9121078
:104DCC00861211F475F006EFA4FE74202EF508740B
:104DDC00271217907A0EA90812132CE96003024EC1
:104DEC00A87C0679FF74271217881210A4E96003B7
:104DFC00024EA87C0E7D0079FF74271217881210C2
:104E0C003E7C1B7D0079FF740C12178812103E7CBF
:104E1C000C7D0079FFAA18AB1912103E74271217DB
:104E2C00907A0EA908121326E9F508740C12179043
:104E3C007A1B74212EF9121326E9F50C740C121737
:104E4C00907A1B74222EF9121326E9F50B740C12AE
:104E5C0017907A1074232EF9121326E9F509740CA5
:104E6C001217907A1074242EF9121326E9F50A748D
:104E7C000C1217907A0474252EF9121326E9FEAC45
:104E8C0018AD197A0C74702FF9121326E9F8E50C89
:104E9C00450B4509450A4E4842088003750800A990
:104EAC000874351217407F0502186C74F712179AA4
:104EBC00E9900765F01211B2024D8574F412179A3D
:104ECC00EAFEEBFF54807003024F5F900765E0F938
:104EDC001210688A088B09EA4509607078018A8289
:104EEC008B83E02450603D14600624E1604F8052B7
:104EFC00A3A3A3A3E0704E8A828B83A3A3A3A3A333
:104F0C00A3A31219C48A828B83A3A3A3A3A3124CB9
:104F1C00488A828B83A3A312501312117674021247
:104F2C0017408021A3A3A3A3E0641E701879008A04
:104F3C00828B83A3A312501312117080081211825A
:104F4C00E9F8E86007AA08AB09121056EEFAEF640C
:104F5C00808065EE540260237C007D007A007B002B
:104F6C001211A0E960117A017B00900765E0F9123B
:104F7C001080EE6402803F7A028046EEA2E0503F41
:104F8C00124FE31250131211EEE9602F12534A60C4
:104F9C001F124FD288088909E8450960137C0079F3
:104FAC0001124FE31250138508828509831217985A
:104FBC001211F4EE6401FAEFFB80087A0180027A98
:104FCC00007B000241B4124FD622E0F5838882A305
:104FDC00A3E0F8A3E0F922900819E0F8A3E0F58328
:104FEC008882A3A3A3227F0202186CC082C0839084
:104FFC000765E0F98A828B83A3125013120816807E
:10500C003B850882850983E0FAA3E0FB22C082C0BD
:10501C008374FF12172A1211B8E9C39402851882FF
:10502C00851983400474028002740AF0AC18AD191F
:10503C007A01790512069C7401121740D083D08234
:10504C0002011F74F412179A74E812172A8A088B3B
:10505C0009E9FE8C0A8D0B7C187D007900AA18AB2F
:10506C001912103E851882851983E508F0A3E5090D
:10507C00F0900767E0C0E07402121776D0E0F09071
:10508C000768E0C0E07403121776D0E0F0900B27AD
:10509C00E0C0E07417121776D0E0F0741512177692
:1050AC00E054FEF8A3E0F9900B26E0A2E0E433FA1A
:1050BC00E84AF874151217761251EAA2E15004D29C
:1050CC00F08002C2F0E854FDFAA2F0E43325E0F8D7
:1050DC00EA48F874151217761251EAA2E35004D27A
:1050EC00F08002C2F0E854F7FAA2F0E433F5087548
:1050FC000900740378081217171251E3121776126D
:10510C0051EAA2E45004D2F08002C2F0E854EFFA63
:10511C00A2F0E433F508740478081217171251E35F
:10512C001217761251EAA2E55004D2F08002C2F0B6
:10513C00E854DFFAA2F0E433F50874057808121786
:10514C00171251E31217761251EAA2E25004D2F070
:10515C008002C2F0E854FBFAA2F0E433F5087402C2
:10516C0078081217171251E3121776E8F0A3E9F03A
:10517C00900768E0601D75081078081219AD7C69FD
:10518C007D077406121776AA82AB8312102674025E
:10519C00121740900779E06010EE60097415121731
:1051AC0076E04402F07801800278007414121776CD
:1051BC00E048F0900766E0600478048002780074A0
:1051CC0014121776E048F0AC0AAD0BAA18AB191202
:1051DC0005B274180241B1EA4508F8741522E8F0DA
:1051EC00A3E9F0900B26E02274F712179A12088E9E
:1051FC00750800E50875F00EA4F8A9F0748128FE76
:10520C00740739FF7C0679FFEEFAEFFB1210A4E964
:10521C007009EEFAEFFB79001208940508E508C353
:10522C00940A40CF024D8574F612179A74FD12172A
:10523C002AEAFEEBFF90081B12534D703975081DBE
:10524C0075090878081219AD7508027509007808F7
:10525C001219AD75088D75099078081219AD7CFF7F
:10526C007DFF7A017B001206DE740612174090084F
:10527C001BEAF0A3EBF090081B12534D7003025382
:10528C0034E4F508F50978081219AD740412178086
:10529C008808890978081219AD74041217808808D7
:1052AC00890978081219AD90081D1219C479029059
:1052BC00081B1253421208047408121740E9703686
:1052CC00851882851983E0FA7401121776E0F8E4E8
:1052DC00C8F9EA28F508E439F509EA4509601778B0
:1052EC00081219AD90081B124FE6A312534212116B
:1052FC00767402121740E4F508F50978081219AD16
:10530C0090081D1219C47CFF7DFF90081B125013CE
:10531C001206EA740412174090081BEAF0A3EBF093
:10532C0090081B12534D70047901800279007403AC
:10533C00121740024FF2124C48EEFAEFFB22900784
:10534C007F124925E84922C082C083900819125364
:10535C004D6010900819125013121056900819E451
:10536C00F0A3F0900B28740AF0025048C082C0835E
:10537C009061907404F0A37448F0A3E4F090618001
:10538C007440F09061BC7407F09061877469F09080
:10539C0061B67416F07900120B0A7902120B109098
:1053AC0024ECE493F46006E493F9120AE67905120E
:1053BC000E0A025773C082C083E9540FF9906185BD
:1053CC00E0696012E5C654804449F5C6E59E547FF9
:1053DC00644970F8E9F053C680E59E547F70FA0278
:1053EC00577374F712179AE5A8FE53A87E120AF2A7
:1053FC00C2BA539AFEC289759B00C2C2120AF875D2
:10540C00A91175B905120AFED2BA439A0174805ECD
:10541C0042A8025D0AC082C083906181E4F0A302BD
:10542C00577075E90075910075BF0002011FC082AD
:10543C00C083906181E4F0A374C0F0A3E4025772BE
:10544C00C082C08374F812172A9003A41266A3704A
:10545C000302552B9003A4E054406023790885186F
:10546C0082851983AA82AB83120C06851882851952
:10547C0083AA82AB831208B89003A4E054BFF0E077
:10548C0054806010790C7A657B05120C069003A48D
:10549C00E0547FF0E0A2E0500F7900120B0A1208E2
:1054AC00BE9003A4E054FEF0E05402600F790112A8
:1054BC000B0A1208BE9003A4E054FDF0E054046003
:1054CC000F7900120B101208C49003A4E054FBF0E7
:1054DC00E05408600F7901120B101208C49003A459
:1054EC00E054F7F0E05410600F7902120B10120820
:1054FC00C49003A4E054EFF0E05420600F79031241
:10550C000B101208C49003A4E054DFF0A3E0540184
:10551C00600D120B1C1208CA9003A5E054FEF07427
:10552C0008121740025773C082C083E960051460EB
:10553C002A804F90619A7433F0A37455F09061A057
:10554C00743AF090053FE064017009C2919003A693
:10555C007467802D9003A67461802690619A743FC5
:10556C00F0A3745AF09061A0747FF090053FE06452
:10557C00017009D2919003A6747180059003A674F2
:10558C006AF0025773C082C083E9600B14600D147B
:10559C00601714600C80209024F080159024F1800A
:1055AC001090053FE0640170059024F28003902474
:1055BC00F3E493906186F002577374EE12179A74A9
:1055CC00F412172A851882851983AC82AD837583F2
:1055DC0090758233740412163D9024F093F460039A
:1055EC000256F0907808E0C3940250030256D0742F
:1055FC0004121776AC82AD8375838F7582C67408DE
:10560C0012163DFC7EFF7FFF8E0C7D008C82858206
:10561C000E800F74086D606D74096D6068740A6D8E
:10562C0060638D08750900740278081217171256FA
:10563C00FA1215E2A909E50AC9F888107418780855
:10564C00121523E5104508FAE9FBE50EC333F8E41F
:10565C0033F97404121776E58228F582E583391242
:10566C005BFAC3E89AE99B4008E8C39AF8E99B8087
:10567C0006EAC398F8EB99F9C3E89EE99F5006E84F
:10568C00FEE9FF8D0C0DEDC39413408774FF6E7013
:10569C000374FF6F6024850C0874027808121717C6
:1056AC001256FA1215E2851882851983E582250EA9
:1056BC00F582E583126099E508F00CECC394045074
:1056CC000302561075080175090078081219AD749B
:1056DC0002121776AC82AD837A3C7B0912123674B7
:1056EC0002121740740C1217407F0A02186C74488F
:1056FC002508F58274783509F583780822C082C0B4
:10570C0083906186E0F89024F3E493687009902408
:10571C00F2E493906186F09061AE7468F0A3746AC1
:10572C00F090624574FBF0A304F053F4FD43FE02C9
:10573C0090053F7401F09061A0E0643A7004790028
:10574C0080027901120B0A025773C082C083900445
:10575C00F1E06401700A9004F6E06004790C8002B8
:10576C0079008003F0A3F0D083D08202011FC082A5
:10577C00C08375E1F19004F4E0604D14600914608D
:10578C0051146049147050120B2E9004EAE0F97A0F
:10579C00EB7B04120D8C909037121600120DC290F8
:1057AC009027121600120D989004F5E0F9120DA432
:1057BC007901120DFE12589624161260967446F05A
:1057CC00A3740BF07900809F120B3480BD120B3A3E
:1057DC0080B8120B4080B3791280EB74F412179AD4
:1057EC0075D90D9004D5E0A2E0E4331313F81258E8
:1057FC008C484401F5D978001258F940FB780088A0
:10580C000874D61265F9740412590340F275E195C7
:10581C009004D5E0F97AD67B04120D92900A587454
:10582C00BCF0A3740A12590912594D125944125A58
:10583C00619004F4E064019004E8700B12589F121C
:10584C0015E2909067800912589F1215E290901FF4
:10585C00780812156E90902B78081215BC12589679
:10586C00240E12609678081215F112589624141210
:10587C0060967413F09003A27402F07F0402186C0B
:10588C009004EAE0C4333354C0229004E8E0F8A357
:10589C00E0C82212653178082274F612179A125A4F
:1058AC00328AD978001258F940FB780080061259D8
:1058BC00AA125AE7E8C39940F5125A241258F94033
:1058CC00FB780080081265F57405125AE7E8C39955
:1058DC0040F375E195900A5874C8F0A3740A1259F4
:1058EC00091259137412F09003A2025CCE8808744A
:1058FC00EB2508F5827404125C64940622125A4A51
:10590C0074C2F0A3740A2212594D125944125A65EA
:10591C009004E8E0F8A3E0C8240E12593C74FF127E
:10592C00636E9004E8E0F8A3E0C8241412593C22FA
:10593C00F582E83400F58322F0A374DAF0A3740A3C
:10594C00221259512212595522F0A37472F0A374E9
:10595C000C2274F612179A12599F12588C4402F5A5
:10596C00D978001258F940FB780080061259AA1217
:10597C005AE7E8C39940F575E195900A581259B564
:10598C00F0A31259B51259167414F09003A27404B2
:10599C00025CD09004FAE0F9740729F5D922880842
:1059AC0074FB2508F58274042274D41259C212595E
:1059BC00C2F0A3740A22F0A3740AF0A374D4227464
:1059CC00F612179A125A3274064AF5D97800125800
:1059DC00F940FB780080061259AA125AE7E8C399DD
:1059EC0040F5125A241258F940FB780080081265D1
:1059FC00F57405125AE7E8C39940F375E195900ADE
:105A0C005874CEF0A3740A125A401259137415F03C
:105A1C009003A27403025CD090051A1259A274046C
:105A2C004AF5D978002212599F9004EAE0C4333326
:105A3C0054C0FA22125A4A7472F0A3740C22125AED
:105A4C004E22125A5B7472F0A3740C125A5B22121F
:105A5C005955F0A322125A6522F0900A667472F01E
:105A6C00A3740C125A4E7472F0A3740C125951F0A8
:105A7C0022C082C0831258962406126096E4025704
:105A8C007074F712179A9003D0E0F875F003A4C85D
:105A9C00AAF02AF974D228F8740339F9E82405FA23
:105AAC00E9126544A3A3A3A3A3A3A3A3A3126645CE
:105ABC00A3A3A3A3A3A3A3E024FFF8A3E034FFF9BB
:105ACC008A828B83E8F0A3E9F0025D0A7F06021854
:105ADC006C880874452508F5827405126070F5D938
:105AEC000822EAFEEBFF9061D0E0F87480C398FACC
:105AFC00EE248222125B06940422F582E93400F52E
:105B0C0083E0F5D90AEAC32274F612179AEAFEEB7F
:105B1C00FF9061D0E06003025BA875D90E75D903C4
:105B2C0075D9047A008A08EE25081265FE248B12BA
